S0110000536C6176655F5250362E73726563E1
S11300000C9471000C947B000C947B000C947B008A
S11300100C947B000C947B000C947B000C947B0070
S11300200C947B000C947B000C947B000C947B0060
S11300300C947B000C947B000C947B000C947B0050
S11300400C947B000C947B000C947B000C94BB0000
S11300500C947B00A100A800AF00BA00BA00BA005B
S1130060BA00BA00BA00BA00BA00BA00BA00BA00BC
S1130070BA00BA00BA00BA00BA00BA00BA00BA00AC
S1130080BA00BA00BA00BA00BA00BA00BA00BA009C
S1130090BA00BA00BA00BA00BA00BA00BA00BA008C
S11300A0BA00BA00BA00BA00BA00BA00BA00BA007C
S11300B0BA00BA009200BA00BA009C00BA00BA00B2
S11300C0BA00BA00BA00BA00BA00BA00BA00BA005C
S11300D0BA00BA00B600BA009700BA00BA00BA0073
S11300E08D0011241FBECFE5D8E0DEBFCDBF0E9436
S11300F000010C940D010C94000011B880E782B942
S113010085E486BF089590E0FC01F197E734F1059A
S113011088F5E65DFF4F0C940701AA98AB988EE52D
S113012083B90895AA9AAB988CE383B90895AA9ADF
S1130130AB9A8EE283B90895AA98AB9A8EE383B9F9
S1130140089582E390E09BBD8ABD99BD88BD089562
S11301508DE790E09BBD8ABD99BD88BD089586E971
S113016090E09BBD8ABD99BD88BD08951BBC1ABC97
S113017019BC18BC08951F920F920FB60F92112448
S11301802F933F934F935F936F937F938F939F939B
S1130190AF93BF93EF93FF9381B1883A31F0883BDB
S11301A041F0803849F483B107C080E00E948300A5
S11301B003C080E00E94830086B7806886BFFF91F9
S11301C0EF91BF91AF919F918F917F916F915F91CB
S11301D04F913F912F910F900FBE0F901F90189544
S11301E01DBC1CBC8FB5826A8FBD8EB581618EBD6E
S11301F08FEF90E097BD86BD84B38C6084BB089577
S1130200F8940E94F00078940E947D00FFCFEE0FD6
S1110210FF1F0590F491E02D0994F894FFCFA0
S9030000FC
