S022000042756D70657220656E2072696A64656E2061616E6765706173742E7372656334
S11300000C942A000C943F000C943F000C943F0085
S11300100C943F000C943F000C943F000C94B800E7
S11300200C94E4000C943F000C943F000C943F00AB
S11300300C943F000C943F000C943F000C943F0040
S11300400C943F000C943F000C943F000C943F0030
S11300500C943F0011241FBECFE5D8E0DEBFCDBF16
S113006010E0A0E6B0E0E4E5F2E002C005900D92F5
S1130070A836B107D9F70E9497000C9428010C9474
S113008000001BB880E18AB986E080BD10BC8CE01A
S113009089B908955F9BFECF8CB190E00895A0E0EC
S11300A00E941C0141F1F0916000E09161004091D7
S11300B062005091630060916400709165002F2F7D
S11300C03E2F8091660090916700A1E00E9410018C
S11300D0209360003093610040936200509363006A
S11300E0609364007093650080936600909367004A
S11300F08F2F9E2F08958091600090916100089544
S113010078941DBC1CBC83B7836083BF8FB5826A9F
S11301108FBD8EB581618EBD8FEF90E097BD86BD9A
S113012089B7816089BF84B38C6084BB0895F894D7
S11301300E9480000E9441007894C0E5D0E00E94B3
S11301404A00C29751F485B3847085BB85B3887027
S113015085BBDBBDCABDD9BDC8BD0E944A00C197DD
S113016071F7AA9AAB98DBBDCABDD9BDC8BDE7CFAC
S11301701F920F920FB60F9211242F933F934F9318
S11301805F936F937F938F939F93AF93BF93EF93FB
S1130190FF9321E030E040E050E060E070E080E078
S11301A090E00E944F00FF91EF91BF91AF919F911A
S11301B08F917F916F915F914F913F912F910F900C
S11301C00FBE0F901F9018951F920F920FB60F92AB
S11301D011242F933F934F935F936F937F938F9348
S11301E09F93AF93BF93EF93FF9321E030E040E000
S11301F050E060E070E080E090E00E944F00FF91EA
S1130200EF91BF91AF919F918F917F916F915F918A
S11302104F913F912F910F900FBE0F901F90189503
S11302200024A7FD00942A0F301D401D501D601DA1
S1130230701D801D901D08950024A7FD00942A17A9
S1130240300540055005600570058005900508954A
S1070250F894FFCF4C
S10B025401000000000000009D
S9030000FC
