S022000042756D70657220656E2072696A64656E2061616E6765706173742E7372656334
S11300000C942A000C9447000C9447000C9447006D
S11300100C9447000C9447000C9447000C94FA008D
S11300200C9426010C9447000C9447000C94470050
S11300300C9447000C9447000C9447000C94470020
S11300400C9447000C9447000C9447000C94470010
S11300500C94470011241FBECFE5D8E0DEBFCDBF0E
S113006010E0A0E6B0E0E8EDF2E002C005900D92E9
S1130070A836B107D9F720E0A8E6B0E001C01D9288
S1130080AA36B207E1F70E94F1000C946A010C94BD
S113009000001BB880E18AB986E080BD10BC8CE00A
S11300A089B908955F9BFECF8CB190E008950E94BA
S11300B052002091680030916900813339F442E3A1
S11300C050E0509369004093680012C0823339F4C1
S11300D04DE750E0509369004093680016C08333A5
S11300E039F446E950E0509369004093680016C023
S11300F0873759F495B3947095BB95B3987095BBB5
S11301003BBD2ABD39BD28BD12C0813639F4AA9A37
S1130110AB983BBD2ABD39BD28BD14C0833739F423
S1130120AA9AAB9A3BBD2ABD39BD28BD0895843631
S113013049F4AA98AB9A80E590E09BBD8ABD99BD2D
S113014088BD0895813721F419BC18BC1BBC1ABCA6
S11301500895A0E00E945E0141F1F0916000E091F9
S1130160610040916200509163006091640070915D
S113017065002F2F3E2F8091660090916700A1E0CB
S11301800E9452012093600030936100409362000A
S113019050936300609364007093650080936600DD
S11301A0909367008F2F9E2F089580916000909107
S11301B06100089578941DBC1CBC83B7836083BF21
S11301C08FB5826A8FBD8EB581618EBD8FEF90E051
S11301D097BD86BD89B7816089BF84B38C6084BBB9
S11301E00895F8940E94DA000E94490078940E94CD
S11301F05700FDCF1F920F920FB60F9211242F9329
S11302003F934F935F936F937F938F939F93AF939A
S1130210BF93EF93FF9321E030E040E050E060E0D3
S113022070E080E090E00E94A900FF91EF91BF91FF
S1130230AF919F918F917F916F915F914F913F917A
S11302402F910F900FBE0F901F9018951F920F9231
S11302500FB60F9211242F933F934F935F936F9395
S11302607F938F939F93AF93BF93EF93FF9321E07B
S113027030E040E050E060E070E080E090E00E9418
S1130280A900FF91EF91BF91AF919F918F917F91C1
S11302906F915F914F913F912F910F900FBE0F90EF
S11302A01F9018950024A7FD00942A0F301D401DAF
S11302B0501D601D701D801D901D08950024A7FD14
S11302C000942A1730054005500560057005800527
S10B02D090050895F894FFCF96
S10B02D8010000000000000019
S9030000FC
