:100000000C942A000C943F000C943F000C943F0089
:100010000C943F000C943F000C943F000C941C0186
:100020000C9448010C943F000C943F000C943F004A
:100030000C943F000C943F000C943F000C943F0044
:100040000C943F000C943F000C943F000C943F0034
:100050000C943F0011241FBECFE5D8E0DEBFCDBF1A
:1000600010E0A0E6B0E0ECE1F3E002C005900D92F4
:10007000A836B107D9F70E9408010C948C010C94A2
:1000800000001BB880E18AB986E080BD10BC8CE01E
:1000900089B908955F9BFECF8CB190E008950F93CE
:1000A0001F93CF93DF9300D0CDB7DEB78C010E94B2
:1000B0004A009A83898389819A818737910551F40F
:1000C00085B3847085BB85B3887085BB1BBD0ABDB5
:1000D00019BD08BD89819A818136910531F4AA9AAA
:1000E000AB981BBD0ABD19BD08BD89819A818337B4
:1000F000910531F4AA9AAB9A1BBD0ABD19BD08BD82
:1001000089819A818436910531F4AA98AB9A1BBDF6
:100110000ABD19BD08BD89819A818137910521F4F5
:1001200019BC18BC1BBC1ABC0F900F90DF91CF916B
:100130001F910F910895CF93DF9300D0CDB7DEB715
:100140000E944A009A83898389819A81019759F094
:1001500089819A81029751F089819A81039749F0A8
:1001600080E090E008C082E390E005C08DE790E079
:1001700002C084EB90E00F900F90DF91CF91089533
:10018000A0E00E94800141F1F0916000E0916100E7
:10019000409162005091630060916400709165002D
:1001A0002F2F3E2F8091660090916700A1E00E9462
:1001B000740120936000309361004093620050937B
:1001C0006300609364007093650080936600909371
:1001D00067008F2F9E2F089580916000909161009D
:1001E000089578941DBC1CBC83B7836083BF8FB512
:1001F000826A8FBD8EB581618EBD8FEF90E097BD15
:1002000086BD89B7816089BF84B38C6084BB089543
:10021000CF93DF9300D0CDB7DEB7F8940E94F10002
:100220000E94410078940E949B009A83898389816F
:100230009A810E944F00F7CF1F920F920FB60F9234
:1002400011242F933F934F935F936F937F938F93DB
:100250009F93AF93BF93EF93FF9321E030E040E093
:1002600050E060E070E080E090E00E94C000FF910C
:10027000EF91BF91AF919F918F917F916F915F911E
:100280004F913F912F910F900FBE0F901F90189597
:100290001F920F920FB60F9211242F933F934F93FB
:1002A0005F936F937F938F939F93AF93BF93EF93DE
:1002B000FF9321E030E040E050E060E070E080E05B
:1002C00090E00E94C000FF91EF91BF91AF919F918C
:1002D0008F917F916F915F914F913F912F910F90EF
:1002E0000FBE0F901F9018950024A7FD00942A0FB1
:1002F000301D401D501D601D701D801D901D0895F6
:100300000024A7FD00942A1730054005500560051C
:0C0310007005800590050895F894FFCF5B
:08031C000100000000000000D8
:00000001FF
