:100000000C942A000C9447000C9447000C94470071
:100010000C9447000C9447000C9447000C940E017C
:100020000C943A010C9447000C9447000C94470040
:100030000C9447000C9447000C9447000C94470024
:100040000C9447000C9447000C9447000C94470014
:100050000C94470011241FBECFE5D8E0DEBFCDBF12
:1000600010E0A0E6B0E0E0E0F3E002C005900D9201
:10007000A836B107D9F720E0A8E6B0E001C01D928C
:10008000AA36B207E1F70E9405010C947E010C9498
:1000900000001BB880E18AB986E080BD10BC8CE00E
:1000A00089B908955F9BFECF8CB190E008950E94BE
:1000B0005200813339F422E330E030936900209319
:1000C000680012C0823339F42DE730E030936900C4
:1000D000209368001EC0833339F426E930E0309362
:1000E00069002093680026C0873799F495B394700F
:1000F00095BB95B3987095BB2091680030916900CD
:100100003BBD2ABD209168003091690039BD28BDF2
:1001100022C0813679F4AA9AAB9820916800309178
:1001200069003BBD2ABD209168003091690039BD4E
:1001300028BD1CC0833779F4AA9AAB9A80916800D5
:10014000909169009BBD8ABD809168009091690083
:1001500099BD88BD0895843649F4AA98AB9A80E584
:1001600090E09BBD8ABD99BD88BD0895813721F47B
:1001700019BC18BC1BBC1ABC0895A0E00E947201F7
:1001800041F1F0916000E091610040916200509176
:10019000630060916400709165002F2F3E2F809165
:1001A000660090916700A1E00E94660120936000C4
:1001B0003093610040936200509363006093640049
:1001C0007093650080936600909367008F2F9E2F39
:1001D00008958091600090916100089578941DBC0D
:1001E0001CBC83B7836083BF8FB5826A8FBD8EB519
:1001F00081618EBD8FEF90E097BD86BD89B781602C
:1002000089BF84B38C6084BB0895F8940E94EE008B
:100210000E94490078940E945700FDCF1F920F92D0
:100220000FB60F9211242F933F934F935F936F93C9
:100230007F938F939F93AF93BF93EF93FF9321E0AF
:1002400030E040E050E060E070E080E090E00E944C
:10025000BD00FF91EF91BF91AF919F918F917F91E1
:100260006F915F914F913F912F910F900FBE0F9023
:100270001F9018951F920F920FB60F9211242F9373
:100280003F934F935F936F937F938F939F93AF931E
:10029000BF93EF93FF9321E030E040E050E060E057
:1002A00070E080E090E00E94BD00FF91EF91BF916F
:1002B000AF919F918F917F916F915F914F913F91FE
:1002C0002F910F900FBE0F901F9018950024A7FD3F
:1002D00000942A0F301D401D501D601D701D801D93
:1002E000901D08950024A7FD00942A1730054005AD
:1002F000500560057005800590050895F894FFCFBE
:080300000100000000000000F4
:00000001FF
