:100000000C942A000C943C000C943C000C943C0092
:100010000C943C000C943C000C943C000C943C0070
:100020000C943C000C943C000C9467000C943C0035
:100030000C943C000C943C000C943C000C943C0050
:100040000C943C000C943C000C943C000C943C0040
:100050000C943C0011241FBECFE5D8E0DEBFCDBF1D
:1000600020E0A0E6B0E001C01D92A236B207E1F7A1
:100070000E9457000C9499000C9400001816190661
:100080002CF481508093610080E0089581E090918C
:1000900061009A3009F080E0089580E090E00E94CD
:1000A0003E00882319F088B3805888BB089578945F
:1000B00080E887BB80E184BB82E089BF88E183BFA1
:1000C00085E083BF8DE48CBF0E944D00FDCF1F9261
:1000D0000F920FB60F9211242F933F934F935F937C
:1000E0006F937F938F939F93AF93BF93CF93EF9330
:1000F000FF93C0916000CF5FC09360008C2F90E0B1
:1001000001960E943E00CA3011F410926000FF91E7
:10011000EF91CF91BF91AF919F918F917F916F910F
:100120005F914F913F912F910F900FBE0F901F90B5
:060130001895F894FFCFC2
:00000001FF
