S00F000070726F6A6563742E737265631E
S1130000B8C00000D5C00000D3C00000D1C00000BB
S1130010CFC00000CDC00000CBC00000C9C00000AC
S1130020C7C00000C5C00000C3C00000C1C00000BC
S1130030BFC00000BDC00000BBC00000B9C00000CC
S1130040B7C00000B5C00000B3C00000B1C00000DC
S1130050B0C00000ADC00000ABC00000A9C00000EB
S1130060A7C0000010C10000A3C00000A1C0000090
S11300709FC000009DC000009BC0000099C000000C
S113008097C0000095C0000093C0000091C000001C
S11300908FC000008DC000008BC0000089C000002C
S11300A087C0000085C0000083C0000081C000003C
S11300B07FC000007DC000007BC0000079C000004C
S11300C077C0000075C0000073C0000071C000005C
S11300D06FC000006DC000006BC0000069C000006C
S11300E067C0000077017B017F01960196019601AC
S11300F09601960196019601960196019601960144
S11301009601960196019601960196019601960133
S11301109601960196019601960196019601960123
S11301209601960196019601960196019601960113
S11301309601960196019601960196019601960103
S1130140960196016701960196016F019601960149
S113015096019601960196019601960196019601E3
S11301609601870183019601730196019601960118
S11301706B0111241FBECFEFD1E2DEBFCDBF00E083
S11301800CBF12E0A0E0B2E0E8E0F6E000E00BBF54
S113019002C007900D92A630B107D9F722E0A6E07D
S11301A0B2E001C01D92AC30B207E1F7B4D12AC26B
S11301B027CF1F920F920FB60F9211240F900FBEEC
S11301C00F901F9018951092C00088E98093C10089
S11301D086E08093C2001092C50087E68093C40035
S11301E00895ECE7F0E0808180688083EAE7F0E03E
S11301F0808187608083808180688083808180653E
S11302008083089583E08BB91092B90088E48093C9
S1130210B80084E08093BC00089584EA8093BC0015
S1130220ECEBF0E080818823ECF708958093BB0029
S113023084E88093BC00ECEBF0E080818823ECF749
S1130240089584E88093BC00ECEBF0E0808188237F
S1130250ECF78091BB000895CF93C82FDEDF80E7D1
S1130260E5DF8C2FE3DFCF910895D7DF81E7DEDF71
S1130270E8DF80930B02E0ECF0E0908195FFFDCF86
S11302808093C60008951F920F920FB60F92112407
S11302900BB60F922F933F934F935F936F937F937C
S11302A08F939F93AF93BF93EF93FF932091C600D7
S11302B020930A02822F90E0FC01F197E734F105C4
S11302C008F034C08827EE58FF4F8F4F42C181E6B3
S11302D0C3DFCBDF2DC087E7BFDFC7DF29C084E6DC
S11302E0BBDFC3DF25C083E7B7DFBFDF21C081E306
S11302F0B3DFBBDF1DC082E3AFDFB7DF19C083E329
S1130300ABDFB3DF15C081E7A7DFAFDF11C081E04A
S113031090E02091060230910702232B11F080E037
S113032090E0909307028093060202C0822F94DF2C
S1130330FF91EF91BF91AF919F918F917F916F91B9
S11303405F914F913F912F910F900BBE0F900FBE75
S11303500F901F901895E0ECF0E0808185FFFDCFB1
S11303608DE08093C600E0ECF0E0808185FFFDCF56
S11303708AE08093C60008950F931F93CF93DF9371
S1130380CDB7DEB766970FB6F894DEBF0FBECDBF0C
S11303908C0186E0E0E0F2E0DE01119601900D921E
S11303A08A95E1F74AE050E0BE01695F7F4FC801DA
S11303B0ECD09F81992389F0AE01485F5F4FE0EC58
S11303C0F0E026EC30E0808185FFFDCFD9019C93DD
S11303D0DA019D91AD019111F6CFE0ECF0E080815E
S11303E085FFFDCF83E68093C600E0ECF0E08081DA
S11303F085FFFDCF8DE68093C6000930110528F5F1
S1130400E0ECF0E0808185FFFDCF8DE28093C600B3
S1130410E0ECF0E0808185FFFDCF8DE28093C600A3
S1130420BE016F5F7F4FAE01495F5F4FE0ECF0E0CC
S113043026EC30E0808185FFFDCFDB018D91BD018D
S1130440D9018C9364177507A9F785DF66960FB6F3
S1130450F894DEBF0FBECDBFDF91CF911F910F91F6
S11304600895109285001092840020E830E0E4E8BA
S1130470F0E08081918181159A4FD8F321503109A0
S1130480C1F7259A2D988AE08A95F1F700C02D9A34
S11304902AE12A95F1F700C02D9825981D9B09C0E3
S11304A015C080384AE1940746E0A407B10521F459
S11304B0089580E090E0DC010196A11DB11D1D9B13
S11304C0F0CF80389A41A640B10520F510928500FE
S11304D0109284001D99FECF809184009091850034
S11304E0909309028093080220910602309107023A
S11304F02130310529F46FE070E018D0CB013CDFE6
S11305008091080290910902873891051CF488E3D0
S1130510A3DEABCE089557DE64DE74DE1092800055
S113052083E08093810078949CDFFECF97FB072EB5
S113053016F4009406D077FD08D013D007FC05D03C
S11305403EF4909581959F4F0895709561957F4FE6
S11305500895EE0FFF1F881F8BBF0790F691E02DC3
S11305601994AA1BBB1B51E107C0AA1FBB1FA617E6
S1130570B70710F0A61BB70B881F991F5A95A9F748
S113058080959095BC01CD0108954532510518F42C
S1130590423008F004C0FB011082CB010895BB2750
S11305A04A3031F4992322F4BDE2909581959F4F0E
S11305B001C0BB27FB015527AA27880F991FAA1F33
S11305C0A41710F0A41B83955051B9F7A05DAA336A
S11305D008F0A95DA193009779F7B111B193119235
S11305E0CB0100C0DC01FC01672F71917723E1F797
S11305F0329704C07C916D9370836291AE17BF07EC
S10B0600C8F30895F894FFCF3C
S109060844414E47455237
S9030000FC
