S01800004763634170706C69636174696F6E31342E7372656326
S11300000C9471000C9483000C9483000C94830072
S11300100C9483000C9483000C9483000C94830050
S11300200C9483000C9483000C9483000C94830040
S11300300C9483000C9483000C9483000C94830030
S11300400C9483000C9483000C9483000C94C900DA
S11300500C948300A900B000B700C800C800C80011
S1130060C800C200C800C800C800C800C800C80052
S1130070C800C800C800C800C800C800C800C8003C
S1130080C800C800C800C800C800C800C800C8002C
S1130090C800C800C800C800C800C800C800C8001C
S11300A0C800C800C800C800C800C800C800C8000C
S11300B0C800C8009A00C800C800A400C800C8004E
S11300C0C800C800C800C800C800C800C800C800EC
S11300D0C800C800BE00C8009F00C800C800C8000F
S11300E0950011241FBECFE5D8E0DEBFCDBF20E0D0
S11300F0A0E6B0E001C01D92A236B207E1F70E946B
S113010021010C942E010C94000011B880E782B9EF
S113011085E486BF089590E0FC01F197E734F1058A
S1130120B8F5E65DFF4F0C9428018EE583B9AA98D3
S1130130AB980895AA9AAB988CE383B90895AA9AC8
S1130140AB9A8EE283B90895AA98AB9A8EE383B9E9
S1130150089582E390E09BBD8ABD99BD88BD089552
S11301608DE790E09BBD8ABD99BD88BD089586E961
S113017090E09BBD8ABD99BD88BD08951BBC1ABC87
S113018019BC18BC1BBC1ABC19BC18BC88E583B9C3
S113019008951F920F920FB60F9211242F933F933D
S11301A04F935F936F937F938F939F93AF93BF937B
S11301B0EF93FF9381B1883AA1F028F4803841F09D
S11301C0803A51F01AC0883B89F0803CA1F015C0F8
S11301D083B18093600011C08091600080936100BE
S11301E00CC0809161000E948B0007C08091610067
S11301F00E948B0002C01092610086B7806886BF9F
S1130200FF91EF91BF91AF919F918F917F916F91EA
S11302105F914F913F912F910F900FBE0F901F90C0
S113022018951DBC1CBC8FB5826A8FBD8EB58161CB
S11302308EBD8FEF90E097BD86BD84B38C6084BB88
S11302400895F8940E94110178940E948500FFCFCC
S1130250EE0FFF1F0590F491E02D0994F894FFCF61
S9030000FC
