:100000000C9471000C9483000C9483000C94830076
:100010000C9483000C9483000C9483000C94830054
:100020000C9483000C9483000C945C010C9483006A
:100030000C9483000C9483000C9483000C94830034
:100040000C9483000C9483000C9483000C94140192
:100050000C948300F400FB0002011301130113014F
:1000600013010D01130113011301130113011301F6
:1000700013011301130113011301130113011301E0
:1000800013011301130113011301130113011301D0
:1000900013011301130113011301130113011301C0
:1000A00013011301130113011301130113011301B0
:1000B00013011301DF0013011301ED0013011301FC
:1000C0001301130113011301130113011301130190
:1000D0001301130109011301E600130113011301B8
:1000E000D80011241FBECFE5D8E0DEBFCDBF20E091
:1000F000A0E6B0E001C01D92A336B207E1F70E946E
:100100009B000C9488010C94000011B880E782B920
:1001100085E486BF08951DBC1CBC8FB5826A8FBD67
:100120008EB581618EBD8FEF90E097BD86BD84B3A3
:100130008C6084BB0895F8940E948B0078940E9490
:100140008500FFCFC798AC980895892B39F080912E
:1001500060008F5F8093600080E008958091600070
:10016000843120F01092600081E0089580E00895CD
:1001700080E090E00E94A500882319F088B38058A1
:1001800088BB089580E090E00E94A500882321F0BC
:1001900095B380E1892785BB089590E0FC01F19734
:1001A000E734F10508F03FC0E65DFF4F0C94820193
:1001B0008EE583B9AA98AB980E94A2000895AA9AE6
:1001C000AB980E94B8008CE383B90895AA9AAB9AC1
:1001D0000E94A2008EE283B90895AA98AB9A0E9469
:1001E000C2008EE383B9089582E390E09BBD8ABD8F
:1001F00099BD88BD08958DE790E09BBD8ABD99BDEE
:1002000088BD089586E990E09BBD8ABD99BD88BDF3
:1002100008951BBC1ABC19BC18BC1BBC1ABC19BC69
:1002200018BC88E583B908951F920F920FB60F92FC
:1002300011242F933F934F935F936F937F938F93EB
:100240009F93AF93BF93EF93FF9381B1883AA1F04F
:1002500028F4803841F0803A51F01AC0883B89F088
:10026000803CA1F015C083B18093610011C08091E2
:100270006100809362000CC0809162000E94CD00FA
:1002800007C0809162000E94CD0002C010926200FF
:1002900086B7806886BFFF91EF91BF91AF919F9124
:1002A0008F917F916F915F914F913F912F910F901F
:1002B0000FBE0F901F9018951F920F920FB60F92BE
:1002C00011242F933F934F935F936F937F938F935B
:1002D0009F93AF93BF93EF93FF9381E090E00E94D1
:1002E000A500FF91EF91BF91AF919F918F917F9169
:1002F0006F915F914F913F912F910F900FBE0F9093
:100300001F901895EE0FFF1F0590F491E02D0994B2
:04031000F894FFCF8F
:00000001FF
