:100000000C9471000C9483000C9483000C94830076
:100010000C9483000C9483000C9483000C94830054
:100020000C9483000C9483000C9483010C94830043
:100030000C9483000C9483000C9483000C94830034
:100040000C9483000C9483000C9483000C94DE00C9
:100050000C948300BE00C500CC00DD00DD00DD0097
:10006000DD00D700DD00DD00DD00DD00DD00DD00AE
:10007000DD00DD00DD00DD00DD00DD00DD00DD0098
:10008000DD00DD00DD00DD00DD00DD00DD00DD0088
:10009000DD00DD00DD00DD00DD00DD00DD00DD0078
:1000A000DD00DD00DD00DD00DD00DD00DD00DD0068
:1000B000DD00DD009F00DD00DD00B300DD00DD00C0
:1000C000DD00DD00DD00DD00DD00DD00DD00DD0048
:1000D000DD00DD00D300DD00AA00DD00DD00DD0075
:1000E000960011241FBECFE5D8E0DEBFCDBF20E0D3
:1000F000A0E6B0E001C01D92A536B207E1F70E946C
:10010000CD010C94E4010C94000011B880E782B991
:1001100085E486BF089590E0FC01F197E734F1058E
:1001200008F04BC0E65DFF4F0C94DE018EE583B90D
:10013000AA98AB9810926100109260000895AA9A54
:10014000AB9881E090E090936100809360008CE335
:1001500083B90895AA9AAB9A8EE283B9109261008E
:10016000109260000895AA98AB9A82E090E0909374
:100170006100809360008EE383B9089582E390E08C
:100180009BBD8ABD99BD88BD08958DE790E09BBD5C
:100190008ABD99BD88BD089586E990E09BBD8ABD62
:1001A00099BD88BD08951BBC1ABC19BC18BC1BBCEA
:1001B0001ABC19BC18BC88E583B908951F920F9228
:1001C0000FB60F9211242F933F934F935F936F932A
:1001D0007F938F939F93AF93BF93EF93FF9381B1DF
:1001E000883AA1F028F4803841F0803A51F01AC0E2
:1001F000883B89F0803CA1F015C083B180936300F7
:1002000011C080916300809364000CC080916400F1
:100210000E948B0007C0809164000E948B0002C086
:100220001092640086B7806886BFFF91EF91BF91FE
:10023000AF919F918F917F916F915F914F913F917E
:100240002F910F900FBE0F901F9018951DBC1CBCD6
:100250008FB5826A8FBD8EB581618EBD8FEF90E0C4
:1002600097BD86BD84B38C6084BB0895BF9AA49A61
:1002700082E089BF83B7886183BF83B7856083BF0E
:100280008DE48CBF0895892B39F0809162008F5FD7
:100290008093620080E0089580916200843120F0B4
:1002A0001092620081E0089580E0089580916000DE
:1002B000909161008130910559F480E090E00E94B6
:1002C0004301882341F088B3805888BBAC980895D7
:1002D000892B09F4C798089580916000909161007E
:1002E0008230910561F480E090E00E944301882310
:1002F00049F095B380E1892785BBC7980895892B7C
:1003000009F4AC9808951F920F920FB60F92112422
:100310002F933F934F935F936F937F938F939F930D
:10032000AF93BF93EF93FF9381E090E00E9443016E
:10033000FF91EF91BF91AF919F918F917F916F91BD
:100340005F914F913F912F910F900FBE0F901F9093
:10035000189527B398B3B898C098000086B327BB08
:1003600098BB80FF05C0AA9AAB9A81E090E00895FF
:1003700080E090E0089524B395B3A698AE9800006D
:1003800083B324BB95BB86FF05C083E783B981E0B7
:1003900090E0089580E090E00895F8940E9426018E
:1003A0000E94360178940E9485000E946C010E9490
:1003B00056010E94BB010E94A901F7CFEE0FFF1F5B
:0C03C0000590F491E02D0994F894FFCF13
:00000001FF
