:100000000C9471000C9401020C941A020C9486005A
:100010000C9486000C94B8010C9486000C94860015
:100020000C9486000C9486000C94E8010C948600D5
:100030000C9486000C9486000C9486000C94860028
:100040000C9486000C9486000C9486000C94590144
:100050000C948600440144014401580158015801A0
:1000600058014F01580158015801580158015801D1
:1000700058015801580158015801580158015801B8
:1000800058015801580158015801580158015801A8
:100090005801580158015801580158015801580198
:1000A0005801580158015801580158015801580188
:1000B000580158013F01580158013F0158015801AA
:1000C0005801580158015801580158015801580168
:1000D00058015801490158013F0158015801580180
:1000E0003F0111241FBECFE5D8E0DEBFCDBF10E039
:1000F000A0E6B0E0E4E0F5E002C005900D92A23782
:10010000B107D9F70E9467020C9480020C9400009A
:10011000FC01623361F018F4613331F010C06333D5
:1001200049F0613751F00BC022E330E008C02DE701
:1001300030E005C02FEA30E002C020E030E08481EA
:1001400095812817390731F03583248381E090E0C9
:10015000968785870895FC018285861749F0628716
:1001600081E090E0908B878784E190E0948783879B
:100170000895FC01808191812481358128173907F8
:100180004CF0892B51F48AE090E09183808341E028
:1001900050E005C04FEF5FEF02C041E050E08081CA
:1001A0009181840F951F918380832817390711F45B
:1001B000168615860895FC018285843689F018F428
:1001C000813641F00895833741F0873759F4AA9872
:1001D000AB980895AA9AAB980895AA9AAB9A0895F5
:1001E000AA98AB9A0895FC018285813619F084366D
:1001F00039F00BC095B380E1892785BBC798089576
:10020000AC9888B3805888BB0895AC98C798089577
:10021000FC01208131813BBD2ABD8081918199BD46
:1002200088BD0895CF93DF93EC018F859889892B42
:1002300019F0CE010E94DB008B859C8545971CF050
:10024000CE010E94F3008D859E85892B19F0CE0189
:100250000E940801DF91CF91089511B880E782B91B
:1002600085E486BF0895482F50E0FA01F197E734FE
:10027000F105F0F4682FE65DFF4F0C947A0280E6FA
:1002800090E00E94AB00089580E690E00E94880014
:10029000089561E780E690E00E9488000895E0E616
:1002A000F0E01582148211821082CF010E940801B1
:1002B00008951F920F920FB60F9211242F933F9320
:1002C0004F935F936F937F938F939F93AF93BF935E
:1002D000EF93FF9381B1883A69F018F4803831F0D8
:1002E0000FC0883B39F0803C41F00AC083B10E94C6
:1002F000330106C087E383B903C080E30E94330162
:1003000086B7806886BFFF91EF91BF91AF919F91B3
:100310008F917F916F915F914F913F912F910F90AE
:100320000FBE0F901F90189585B5876085BD89B762
:10033000806489BF08951DBC1CBC8FB5826A8FBDC7
:100340008EB581618EBD8FEF90E097BD86BD84B381
:100350008C6084BB0895BF9AA49A82E089BF83B75A
:10036000886183BF83B7856083BF8DE48CBF0895A8
:100370001F920F920FB60F9211242F933F934F931A
:100380005F936F937F938F939F93AF93BF93EF93FD
:10039000FF9380916D0090916E00892B41F080E673
:1003A00090E00E94B90080E690E00E940801FF9171
:1003B000EF91BF91AF919F918F917F916F915F91DD
:1003C0004F913F912F910F900FBE0F901F90189556
:1003D0001F920F920FB60F9211248F939F93EF935A
:1003E000FF93E0E6F0E08385948501969487838708
:1003F000FF91EF919F918F910F900FBE0F901F90E3
:1004000018951F920F920FB60F9211248F939F93FE
:10041000EF93FF93E0E6F0E0808591850196918768
:100420008087FF91EF919F918F910F900FBE0F905A
:100430001F9018951F920F920FB60F9211248F9351
:100440009F93EF93FF93E0E6F0E08681978101961A
:1004500097838683FF91EF919F918F910F900FBEAD
:100460000F901F90189527B398B3B898C0980000C4
:1004700086B327BB98BB80FF0DC064E680E690E0A2
:100480000E94AB0061E380E690E00E94880081E07A
:1004900090E0089580E090E0089524B395B3A69885
:1004A000AE98000083B324BB95BB86FF0DC061E608
:1004B00080E690E00E94AB0061E380E690E00E945D
:1004C000880081E090E0089580E090E00895F8943D
:1004D0000E949B010E94AB010E942D010E94940189
:1004E000789480E690E00E9412010E9433020E94FC
:1004F0004D02F7CFEE0FFF1F0590F491E02D099408
:04050000F894FFCF9D
:100504000000000000007700000000000000000070
:020514000000E5
:00000001FF
