:100000000C942A000C9434000C9434000C943400AA
:100010000C9434000C9434000C9434000C94340090
:100020000C9434000C9434000C9434000C947F0035
:100030000C9434000C9434000C9434000C94340070
:100040000C9434000C9434000C9434000C94340060
:100050000C94340011241FBECFE5D8E0DEBFCDBF25
:100060000E945D000C9489000C94000028E030E0B0
:1000700088B3805888BB4FEF80E792E041508040C2
:100080009040E1F700C000002150310989F7C7987E
:10009000089528E030E090E185B3892785BB4FEFD4
:1000A00050E782E0415050408040E1F700C000003E
:1000B0002150310989F7AC980895C79AAC9A81E02C
:1000C00089BF83B7806183BF85E083BF8EE48CBF27
:1000D0000E9436002FEF89E698E121508040904041
:1000E000E1F700C000000E9449002FEF89E698E187
:1000F000215080409040E1F700C00000E9CF1F92FE
:100100000F920FB60F9211240F900FBE0F901F90F9
:060110001895F894FFCFE2
:00000001FF
