:100000000C942A000C943F000C943F000C943F0089
:100010000C943F000C943F000C943F000C943F0064
:100020000C943F000C943F000C943F000C94DD00B6
:100030000C943F000C943F000C943F000C943F0044
:100040000C943F000C943F000C943F000C943F0034
:100050000C943F0011241FBECFE5D8E0DEBFCDBF1A
:1000600010E0A0E6B0E0E0E7F2E002C005900D92FB
:10007000A836B107D9F70E9403010C9436010C94FD
:100080000000FF920F931F93CF93DF93F0906000D7
:100090000091610010916200D0916300C0916400F2
:1000A000B0916500F0916600E0916700892BD9F06E
:1000B0002F2D302F412F5D2F6C2F7B2F8F2F9E2FB9
:1000C000A1E00E942A0120936000309361004093D8
:1000D00062005093630060936400709365008093A6
:1000E0006600909367002F2D302F412F5D2F6C2FCE
:1000F0007B2F8F2F9E2FDF91CF911F910F91FF901C
:100100000895AF92BF92CF92DF92EF92FF920F933A
:100110001F93E2B72091600030916100409162002E
:100120005091630060916400709165008091660059
:10013000909167000BE00E940801A8E0EA9FF0019F
:1001400011241F2F110F110B5F01C12ED12EE12E93
:10015000F12E012F0E9421011F910F91FF90EF902E
:10016000DF90CF90BF90AF9008950E94810088EEFD
:1001700093E09BBD8ABD99BD88BD90E080E0089565
:10018000789489B7816089BF83B7836083BF12BECB
:1001900081B3806381BB84B38C6084BB8FB5826A7A
:1001A0008FBD8EB581618EBD8FEF99EF97BD86BDF6
:1001B0001BBC1ABC19BC18BC08951F920F920FB635
:1001C0000F9211242F933F934F935F936F937F93DD
:1001D0008F939F93AF93BF93EF93FF9381E090E052
:1001E0000E944100FF91EF91BF91AF919F918F913C
:1001F0007F916F915F914F913F912F910F900FBE23
:100200000F901F9018950E94C0000E94B500FDCF6E
:10021000002E083090F0982F872F762F652F542FBF
:10022000432F322F22270850F4CF220F331F441FB1
:10023000551F661F771F881F991F0A95B2F7002D5B
:1002400008952A0D3B1D4C1D5D1D6E1D7F1D801FD9
:10025000911F08950024A7FD00942A0F301D401D12
:10026000501D601D701D801D901D0895F894FFCFD6
:08027000010000000000000085
:00000001FF
