S01200006C65646A65735F7270362E7372656324
S11300000C942A000C943C000C943C000C943C008E
S11300100C943C000C943C000C943C000C943C006C
S11300200C943C000C943C000C944C000C943C004C
S11300300C943C000C943C000C943C000C943C004C
S11300400C943C000C943C000C943C000C943C003C
S11300500C943C0011241FBECFE5D8E0DEBFCDBF19
S113006020E0A0E6B0E001C01D92A036B207E1F79F
S11300700E943E000C9461000C940000789480E887
S113008087BB80E184BB82E089BF88E183BF85E0D0
S113009083BF8EEF8CBFFFCF1F920F920FB60F92CC
S11300A011248F939F9388B3805888BB95B380E1C4
S11300B0892785BB9F918F910F900FBE0F901F9042
S10900C01895F894FFCF2F
S9030000FC
